:020000021000EC
:10C0000000000120CDC50100F5C50100F7C5010004
:10C01000F9C50100FBC50100FDC5010000000000DD
:10C02000000000000000000000000000FFC501004B
:10C0300001C601000000000003C6010005C60100A2
:10C0400007C6010007C60100C9CB010007C60100F1
:10C0500007C6010007C6010007C6010007C60100A8
:10C0600007C6010007C6010007C6010007C6010098
:10C0700007C6010007C6010007C6010007C6010088
:10C0800007C6010055C6010007C6010007C601002A
:10C09000B1C5010007C6010007C6010007C60100BF
:10C0A00007C6010007C6010007C6010007C6010058
:10C0B00007C6010007C601000000000000000000E4
:10C0C00007C6010007C6010007C6010007C6010038
:10C0D00007C6010007C6010007C6010000000000F6
:10C0E0000000000000000000000000000000000050
:10C0F0000000000000000000000000000000000040
:10C10000000000000000000000000000000000002F
:10C11000000000000000000000000000000000001F
:10C40000044B05481B1A062B02D9044B03B11847ED
:10C41000704700BFF3200020F02000200000000043
:10C4200005490648091A891001EBD171491002D05B
:10C43000034B03B118477047F0200020F020002084
:10C440000000000010B5064C237843B9FFF7D8FF71
:10C45000044B13B10448AFF300800123237010BDD7
:10C46000F02000200000000004CE010008B5084BB9
:10C470001BB108490848AFF300800848036813B9A6
:10C48000BDE80840CCE7064B002BF9D09847F7E70A
:10C4900000000000F420002004CE0100EC20002069
:10C4A00000000000154B002B08BF134B9D46A3F561
:10C4B000803A00218B460F461348144A121A00F0A6
:10C4C0003DFC0F4B002B00D098470E4B002B00D0AB
:10C4D00098470020002104000D000D48002802D0DC
:10C4E0000C48AFF3008000F003FC2000290000F0AE
:10C4F00083FB00F0E9FB00BF000008000000012002
:10C500000000000000000000F02000207C2100203E
:10C51000000000000000000008B5064B012118686B
:10C5200000F0AEF8044B03211868BDE8084000F0A5
:10C53000A7B800BF782000201021002010B5174CAC
:10C54000174B22782AB91868012100F0BBF80123A3
:10C5500004E01868002100F0B5F800232370114BA7
:10C56000186800F0C1F8012811D14FF08043B122C2
:10C57000C3F81C25BFF34F8F0B490C4BCA6802F45C
:10C58000E0621343CB60BFF34F8F00BFFDE74FF472
:10C590007A70BDE8104000F04FB800BF0C210020B9
:10C5A000782000201021002000ED00E00400FA05B2
:10C5B000044B01221A70044B4FF48012C3F88021FF
:10C5C000704700BF1421002000E100E00649074A3F
:10C5D000074B9B1A03DD043BC858D050FBDC00F02E
:10C5E000CFF8FFF75FFF000010CE01007820002099
:10C5F000F0200020FEE7FEE7FEE7FEE7FEE7FEE7AD
:10C60000FEE7FEE7FEE7FEE7094B1968094B30B588
:10C61000D3F804050A060B0A02434FF47A71A2FB11
:10C62000014501FB0355E00B40EA454030BD00BF2A
:10C63000182100200010014038B5044648B1FFF72A
:10C64000E3FF054600F01AF8FFF7DEFF401B8442C7
:10C65000F8D838BD074B0022C3F8042182B0D3F8C4
:10C660000431054A0193019B13680133DBB2136067
:10C6700002B07047001001401821002070470000F0
:10C6800018281BD80E4B53F82030032916D8DFE8A2
:10C6900001F0020E060A03F5E07300210AE003F53B
:10C6A000E0730C2106E003F5E073042102E003F5DA
:10C6B000E07303214FF0A04242F82310704700BFFF
:10C6C00068CD010018280CD8064B53F82000012330
:10C6D0004FF0A042834011B9C2F80C357047C2F840
:10C6E0000835704768CD010018289FBF4FF0A04360
:10C6F000054AD3F8103552F820009ABF23FA00F00B
:10C7000000F001000020704768CD01000C4B1B7841
:10C71000062B10D10B4B1B681A070CD10A4B18685B
:10C7200000F0F003302B08D000F0E000A0F140034F
:10C73000584258417047002070470120704700BFA1
:10C74000E00F00F0E40F00F0E80F00F0094B1B7859
:10C75000062B0CD1084B1B681A0708D1074B186829
:10C7600000F0F000A0F1300358425841704700201B
:10C77000704700BFE00F00F0E40F00F0E80F00F09A
:10C7800008B5FFF7E3FF10B1634B644A1A60FFF787
:10C79000BDFF28B1624B634A1B68C3F34233136089
:10C7A000FFF7D4FF20B1604AD36823F08073D360D1
:10C7B000FFF7ACFF40B14FF080430022C3F80C21DB
:10C7C000C3F81021C3F83825FFF7C0FF10B1574B4D
:10C7D00003221A60FFF7BAFF40B1554B05221A60D9
:10C7E00001229A6700229A603F225A60514B1B78BF
:10C7F000062B09D1504B1B681A0705D14F4B1B68FC
:10C8000003F0F003502B3ED04D4AD2F8883043F469
:10C810007003C2F88830BFF34F8FBFF36F8F4FF0B4
:10C820001023D3F80C32DB0729D5464B0122C3F87D
:10C830000425D3F80024002AFBD04FF010224149F0
:10C84000D2F80C3223F00103C2F80C32D1F80024E4
:10C850003C4B002AFAD00022C3F80425D3F8002468
:10C86000002AFBD0BFF34F8F3549374BCA6802F41B
:10C87000E0621343CB60BFF34F8F00BFFDE7334B44
:10C88000334A1A6008BD4FF08052324BD2F804147C
:10C89000C3F82015D2F80814C3F82415D2F80C14E4
:10C8A000C3F82815D2F81014C3F82C15D2F81414B4
:10C8B000C3F83015D2F81814C3F83415D2F81C1484
:10C8C000C3F84015D2F82014C3F84415D2F8241444
:10C8D000C3F84815D2F82814C3F84C15D2F82C1414
:10C8E000C3F85015D2F83014C3F85415D2F83414E4
:10C8F000C3F86015D2F83814C3F86415D2F83C14A4
:10C90000C3F86815D2F84014C3F86C15D2F8442463
:10C91000C3F8702578E700BF74C007400DF0ADBACA
:10C92000440200103C050040F0ED00E0A00500408E
:10C9300010560040E00F00F0E40F00F0E80F00F0A8
:10C9400000ED00E000E001400400FA057C2000203A
:10C950000090D00300C000402DE9F04106460D468E
:10C9600001EB02080C464445A4EB050707D03368E9
:10C9700014F8011B1B68304698470028F3D138464D
:10C98000BDE8F0810120704703681322DB69184776
:10C9900070470369C3F81C15D3F81C21002AFBD08B
:10C9A0000022C3F81C2101207047000090F85C3081
:10C9B0005AB2520910B4012120320D4C03F01F036A
:10C9C00001FA03F344F8223003695DF8044B0422B2
:10C9D000C3F8082300225960D960C3F800254FF03E
:10C9E000FF32C3F80C251430C3F8142500F04CB9FD
:10C9F00000E100E0143000F059B9143000F05CB9E7
:10CA0000143000F045B90000026990F85E3030B58E
:10CA1000C2F80C3590F85D30C2F81435B1F5966F58
:10CA20004FF00003C2F86C352ED9B1F5166F2ED930
:10CA3000B1F5965F2ED9B1F5165F2DD9B1F5615FCD
:10CA40002CD9B1F5964F2BD9B1F5E14F2AD9B1F5D3
:10CA5000164F29D9B1F5614F29D9B1F5963F29D99A
:10CA6000B1F5E13F28D9B1F5613F28D9344B99425E
:10CA700028D9B1F5E12F28D9B1F5612F94BF4FF036
:10CA800070634FF0805322E04FF49E231FE04FF479
:10CA90001D231CE02B4B1AE02B4B18E02B4B16E010
:10CAA0002B4B14E02B4B12E04FF41D030FE04FF41F
:10CAB0006B030CE0284B0AE04FF0EB7307E04FF0FC
:10CAC0006C7304E04FF0806301E04FF0E863C2F85C
:10CAD000243500210423C2F80035C2F80811C2F839
:10CAE0001C11012111609160C2F8043390F85C20A0
:10CAF00053B2D2B202F01F055C09A9406034174D51
:10CB0000002B45F8241006DA154B02F00F021344EF
:10CB100060221A7606E003F1604303F56143602268
:10CB200083F8002390F85C3001215AB203F01F0310
:10CB300001FA03F35209094941F8223030BD00BF20
:10CB400090D0030000B013000050270000F03A001E
:10CB500000A04E0000C0750000903A0100E100E026
:10CB6000FCEC00E0F8B51D46002343604FF47A73F7
:10CB700083600C4B044640F8143B16460F4600F009
:10CB80006DF8094A276152F8253084F85D309DF828
:10CB9000183084F85C6052F8233084F85E30204608
:10CBA000F8BD00BFD4CD010068CD01000369D3F802
:10CBB000082142B10022C3F80821D3F81815143017
:10CBC000C9B200F056B870470148FFF7EFBF00BF89
:10CBD0001C21002007B517230093022216230349C6
:10CBE0000348FFF7BFFF03B05DF804FB00200040DF
:10CBF0001C2100207047000008B500F011F8FFF775
:10CC0000F9FF0120FFF718FDFFF786FC034CFFF743
:10CC100095FC002CFBD0AFF30080F8E7000000008B
:10CC20000D4BE02283F811234FF40032C3F880212A
:10CC30001A604FF0804300210122C3F818159A6052
:10CC400003F58833C3F808154FF48271C3F8441311
:10CC5000C3F804131A60704700E100E010B54022E9
:10CC60000446002100F06AF8002323646364204630
:10CC700010BD026C10B5531C446C03F03F039C4282
:10CC80001CBF8154036410BD0023036443647047D8
:10CC9000436C026C93421FBFC25C013303F03F033D
:10CCA000436414BF10464FF0FF307047036C406C74
:10CCB000181A48BF40307047436C026C934214BF4F
:10CCC000C05C4FF0FF30704708B5074B044613B106
:10CCD0000021AFF30080054B1868836A03B19847C1
:10CCE000204600F033F800BF0000000000CE010035
:10CCF00070B50E4B0E4CE41AA41000251E46A5423A
:10CD000004D056F8253098470135F8E700F020F8B0
:10CD1000084C094BE41AA41000251E46A54204D075
:10CD200056F8253098470135F8E770BDE02000201F
:10CD3000E0200020E8200020E020002002440346FC
:10CD4000934202D003F8011BFAE77047FEE700BFE9
:10CD5000F8B500BFF8BC08BC9E467047F8B500BFE8
:10CD6000F8BC08BC9E4670470B0000000C00000099
:10CD70000D0000000E0000000F0000001000000079
:10CD80001100000012000000130000001400000059
:10CD90001600000017000000180000001900000035
:10CDA00003000000040000001C0000001D00000043
:10CDB0001E0000001F0000001A0000001B00000001
:10CDC0000800000006000000020000000000000053
:10CDD0000000000093C9010059C90100F5C9010014
:10CDE00001CA0100FBC9010091C9010089C9010004
:10CDF00009CA0100ADC9010085C901004300000056
:08CE000080200020000000006A
:08CE08009CF6FF7F0100000011
:10CE1000060000000090D0030000000000000000A9
:10CE20000000000000000000000000000000000002
:10CE30000000000000000000FCCD01000000000028
:10CE400000000000000000000000000000000000E2
:10CE500000000000000000000000000000000000D2
:10CE600000000000000000000000000000000000C2
:10CE700000000000000000006DC40100D5CB0100DF
:08CE800045C4010000000000A0
:040000031000C5CD57
:00000001FF
